{
  "contractName": "DTube",
  "abi": [
    {
      "inputs": [],
      "stateMutability": "nonpayable",
      "type": "constructor"
    },
    {
      "anonymous": false,
      "inputs": [
        {
          "indexed": false,
          "internalType": "uint256",
          "name": "id",
          "type": "uint256"
        },
        {
          "indexed": false,
          "internalType": "string",
          "name": "hash",
          "type": "string"
        },
        {
          "indexed": false,
          "internalType": "string",
          "name": "title",
          "type": "string"
        },
        {
          "indexed": false,
          "internalType": "address",
          "name": "author",
          "type": "address"
        }
      ],
      "name": "VideoUploaded",
      "type": "event"
    },
    {
      "inputs": [],
      "name": "name",
      "outputs": [
        {
          "internalType": "string",
          "name": "",
          "type": "string"
        }
      ],
      "stateMutability": "view",
      "type": "function"
    },
    {
      "inputs": [],
      "name": "videoCount",
      "outputs": [
        {
          "internalType": "uint256",
          "name": "",
          "type": "uint256"
        }
      ],
      "stateMutability": "view",
      "type": "function"
    },
    {
      "inputs": [
        {
          "internalType": "uint256",
          "name": "",
          "type": "uint256"
        }
      ],
      "name": "videos",
      "outputs": [
        {
          "internalType": "uint256",
          "name": "id",
          "type": "uint256"
        },
        {
          "internalType": "string",
          "name": "hash",
          "type": "string"
        },
        {
          "internalType": "string",
          "name": "title",
          "type": "string"
        },
        {
          "internalType": "address",
          "name": "author",
          "type": "address"
        }
      ],
      "stateMutability": "view",
      "type": "function"
    },
    {
      "inputs": [
        {
          "internalType": "string",
          "name": "_videoHash",
          "type": "string"
        },
        {
          "internalType": "string",
          "name": "_title",
          "type": "string"
        }
      ],
      "name": "uploadVideo",
      "outputs": [],
      "stateMutability": "nonpayable",
      "type": "function"
    }
  ],
  "bytecode": "0x6080604052600080556040518060400160405280600581526020017f445475626500000000000000000000000000000000000000000000000000000081525060019080519060200190610053929190610066565b5034801561006057600080fd5b5061016a565b82805461007290610109565b90600052602060002090601f01602090048101928261009457600085556100db565b82601f106100ad57805160ff19168380011785556100db565b828001600101855582156100db579182015b828111156100da5782518255916020019190600101906100bf565b5b5090506100e891906100ec565b5090565b5b808211156101055760008160009055506001016100ed565b5090565b6000600282049050600182168061012157607f821691505b602082108114156101355761013461013b565b5b50919050565b7f4e487b7100000000000000000000000000000000000000000000000000000000600052602260045260246000fd5b6109aa806101796000396000f3fe608060405234801561001057600080fd5b506004361061004c5760003560e01c806306fdde03146100515780638a5447c51461006f578063c61b5f4c1461008b578063e6821bf5146100a9575b600080fd5b6100596100dc565b604051610066919061067f565b60405180910390f35b61008960048036038101906100849190610583565b61016a565b005b6100936102f5565b6040516100a091906106a1565b60405180910390f35b6100c360048036038101906100be91906105fb565b6102fb565b6040516100d394939291906106bc565b60405180910390f35b600180546100e9906107ff565b80601f0160208091040260200160405190810160405280929190818152602001828054610115906107ff565b80156101625780601f1061013757610100808354040283529160200191610162565b820191906000526020600020905b81548152906001019060200180831161014557829003601f168201915b505050505081565b600082511161017857600080fd5b600081511161018657600080fd5b600073ffffffffffffffffffffffffffffffffffffffff163373ffffffffffffffffffffffffffffffffffffffff1614156101c057600080fd5b6000808154809291906101d290610862565b9190505550604051806080016040528060005481526020018381526020018281526020013373ffffffffffffffffffffffffffffffffffffffff16815250600260008054815260200190815260200160002060008201518160000155602082015181600101908051906020019061024a92919061045b565b50604082015181600201908051906020019061026792919061045b565b5060608201518160030160006101000a81548173ffffffffffffffffffffffffffffffffffffffff021916908373ffffffffffffffffffffffffffffffffffffffff1602179055509050507f2c44b862f4b4e08a26a765f9499900759a9ec95360a6f174d53163bd5d367f676000548383336040516102e994939291906106bc565b60405180910390a15050565b60005481565b6002602052806000526040600020600091509050806000015490806001018054610324906107ff565b80601f0160208091040260200160405190810160405280929190818152602001828054610350906107ff565b801561039d5780601f106103725761010080835404028352916020019161039d565b820191906000526020600020905b81548152906001019060200180831161038057829003601f168201915b5050505050908060020180546103b2906107ff565b80601f01602080910402602001604051908101604052809291908181526020018280546103de906107ff565b801561042b5780601f106104005761010080835404028352916020019161042b565b820191906000526020600020905b81548152906001019060200180831161040e57829003601f168201915b5050505050908060030160009054906101000a900473ffffffffffffffffffffffffffffffffffffffff16905084565b828054610467906107ff565b90600052602060002090601f01602090048101928261048957600085556104d0565b82601f106104a257805160ff19168380011785556104d0565b828001600101855582156104d0579182015b828111156104cf5782518255916020019190600101906104b4565b5b5090506104dd91906104e1565b5090565b5b808211156104fa5760008160009055506001016104e2565b5090565b600061051161050c84610734565b61070f565b90508281526020810184848401111561052d5761052c61093d565b5b6105388482856107bd565b509392505050565b600082601f83011261055557610554610938565b5b81356105658482602086016104fe565b91505092915050565b60008135905061057d8161095d565b92915050565b6000806040838503121561059a57610599610947565b5b600083013567ffffffffffffffff8111156105b8576105b7610942565b5b6105c485828601610540565b925050602083013567ffffffffffffffff8111156105e5576105e4610942565b5b6105f185828601610540565b9150509250929050565b60006020828403121561061157610610610947565b5b600061061f8482850161056e565b91505092915050565b61063181610781565b82525050565b600061064282610765565b61064c8185610770565b935061065c8185602086016107cc565b6106658161094c565b840191505092915050565b610679816107b3565b82525050565b600060208201905081810360008301526106998184610637565b905092915050565b60006020820190506106b66000830184610670565b92915050565b60006080820190506106d16000830187610670565b81810360208301526106e38186610637565b905081810360408301526106f78185610637565b90506107066060830184610628565b95945050505050565b600061071961072a565b90506107258282610831565b919050565b6000604051905090565b600067ffffffffffffffff82111561074f5761074e610909565b5b6107588261094c565b9050602081019050919050565b600081519050919050565b600082825260208201905092915050565b600061078c82610793565b9050919050565b600073ffffffffffffffffffffffffffffffffffffffff82169050919050565b6000819050919050565b82818337600083830152505050565b60005b838110156107ea5780820151818401526020810190506107cf565b838111156107f9576000848401525b50505050565b6000600282049050600182168061081757607f821691505b6020821081141561082b5761082a6108da565b5b50919050565b61083a8261094c565b810181811067ffffffffffffffff8211171561085957610858610909565b5b80604052505050565b600061086d826107b3565b91507fffffffffffffffffffffffffffffffffffffffffffffffffffffffffffffffff8214156108a05761089f6108ab565b5b600182019050919050565b7f4e487b7100000000000000000000000000000000000000000000000000000000600052601160045260246000fd5b7f4e487b7100000000000000000000000000000000000000000000000000000000600052602260045260246000fd5b7f4e487b7100000000000000000000000000000000000000000000000000000000600052604160045260246000fd5b600080fd5b600080fd5b600080fd5b600080fd5b6000601f19601f8301169050919050565b610966816107b3565b811461097157600080fd5b5056fea26469706673582212201e9dfc6cdfc30ca6632d3a8a44b6435371698c1739cd845cef9b2b1ac8f9b63c64736f6c63430008070033",
  "immutableReferences": {},
  "source": "// SPDX-License-Identifier: GPL-3.0\r\npragma solidity ^0.8.7;\r\n\r\ncontract DTube {\r\n    uint256 public videoCount = 0;\r\n    string public name = \"DTube\";\r\n    mapping(uint256 => Video) public videos;\r\n\r\n    struct Video {\r\n        uint256 id; //video count\r\n        string hash; //IPFS hash\r\n        string title; // title of the vide\r\n        address author; // User's wallet address\r\n    }\r\n\r\n    event VideoUploaded(uint256 id, string hash, string title, address author);\r\n\r\n    constructor() {}\r\n\r\n    function uploadVideo(string memory _videoHash, string memory _title)\r\n        public\r\n    {\r\n        // Make sure the video hash exists\r\n        require(bytes(_videoHash).length > 0);\r\n        // Make sure video title exists\r\n        require(bytes(_title).length > 0);\r\n        // Make sure uploader address exists\r\n        require(msg.sender != address(0));\r\n\r\n        // Increment video id\r\n        videoCount++;\r\n\r\n        // Add video to the contract\r\n        videos[videoCount] = Video(videoCount, _videoHash, _title, msg.sender);\r\n        // Trigger an event\r\n        emit VideoUploaded(videoCount, _videoHash, _title, msg.sender);\r\n    }\r\n}\r\n",
  "sourcePath": "C:\\Users\\rbsou\\Documents\\REACT\\DTube\\src\\contracts\\DTube.sol",
  "compiler": {
    "name": "solc",
    "version": "0.8.7+commit.e28d00a7.Emscripten.clang"
  },
  "schemaVersion": "3.4.3",
  "updatedAt": "2021-12-03T15:06:35.854Z",
  "devdoc": {
    "kind": "dev",
    "methods": {},
    "version": 1
  },
  "userdoc": {
    "kind": "user",
    "methods": {},
    "version": 1
  }
}